{
  "contractName": "Flashswap",
  "abi": [
    {
      "inputs": [],
      "stateMutability": "nonpayable",
      "type": "constructor"
    },
    {
      "inputs": [
        {
          "internalType": "address",
          "name": "token0",
          "type": "address"
        },
        {
          "internalType": "address",
          "name": "token1",
          "type": "address"
        },
        {
          "internalType": "uint256",
          "name": "amount0",
          "type": "uint256"
        },
        {
          "internalType": "uint256",
          "name": "amount1",
          "type": "uint256"
        }
      ],
      "name": "startArbitrage",
      "outputs": [],
      "stateMutability": "nonpayable",
      "type": "function"
    },
    {
      "inputs": [
        {
          "internalType": "address",
          "name": "_sender",
          "type": "address"
        },
        {
          "internalType": "uint256",
          "name": "_amount0",
          "type": "uint256"
        },
        {
          "internalType": "uint256",
          "name": "_amount1",
          "type": "uint256"
        },
        {
          "internalType": "bytes",
          "name": "_data",
          "type": "bytes"
        }
      ],
      "name": "uniswapV2Call",
      "outputs": [],
      "stateMutability": "nonpayable",
      "type": "function"
    }
  ],
  "bytecode": "0x608060405273a5e0829caced8ffdd4de3c43696c57f7d7a678ff600160006101000a81548173ffffffffffffffffffffffffffffffffffffffff021916908373ffffffffffffffffffffffffffffffffffffffff16021790555034801561006557600080fd5b50336000806101000a81548173ffffffffffffffffffffffffffffffffffffffff021916908373ffffffffffffffffffffffffffffffffffffffff1602179055506114e2806100b56000396000f3fe608060405234801561001057600080fd5b50600436106100365760003560e01c806310d1e85c1461003b57806376e9d066146100e8575b600080fd5b6100e66004803603608081101561005157600080fd5b81019080803573ffffffffffffffffffffffffffffffffffffffff1690602001909291908035906020019092919080359060200190929190803590602001906401000000008111156100a257600080fd5b8201836020820111156100b457600080fd5b803590602001918460018302840111640100000000831117156100d657600080fd5b9091929391929390505050610160565b005b61015e600480360360808110156100fe57600080fd5b81019080803573ffffffffffffffffffffffffffffffffffffffff169060200190929190803573ffffffffffffffffffffffffffffffffffffffff16906020019092919080359060200190929190803590602001909291905050506109b4565b005b6000600267ffffffffffffffff8111801561017a57600080fd5b506040519080825280602002602001820160405280156101a95781602001602082028036833780820191505090505b50905060008086146101bb57856101bd565b845b905060003373ffffffffffffffffffffffffffffffffffffffff16630dfe16816040518163ffffffff1660e01b815260040160206040518083038186803b15801561020757600080fd5b505afa15801561021b573d6000803e3d6000fd5b505050506040513d602081101561023157600080fd5b8101908080519060200190929190505050905060003373ffffffffffffffffffffffffffffffffffffffff1663d21220a76040518163ffffffff1660e01b815260040160206040518083038186803b15801561028c57600080fd5b505afa1580156102a0573d6000803e3d6000fd5b505050506040513d60208110156102b657600080fd5b8101908080519060200190929190505050905073c35dadb65012ec5796536bd9864ed8773abc74c473ffffffffffffffffffffffffffffffffffffffff1663e6a4390583836040518363ffffffff1660e01b8152600401808373ffffffffffffffffffffffffffffffffffffffff1681526020018273ffffffffffffffffffffffffffffffffffffffff1681526020019250505060206040518083038186803b15801561036257600080fd5b505afa158015610376573d6000803e3d6000fd5b505050506040513d602081101561038c57600080fd5b810190808051906020019092919050505073ffffffffffffffffffffffffffffffffffffffff163373ffffffffffffffffffffffffffffffffffffffff16146103d457600080fd5b60008814806103e35750600087145b6103ec57600080fd5b600088146103fa57816103fc565b805b8460008151811061040957fe5b602002602001019073ffffffffffffffffffffffffffffffffffffffff16908173ffffffffffffffffffffffffffffffffffffffff1681525050600088146104515780610453565b815b8460018151811061046057fe5b602002602001019073ffffffffffffffffffffffffffffffffffffffff16908173ffffffffffffffffffffffffffffffffffffffff168152505060008089146104a957826104ab565b815b90508073ffffffffffffffffffffffffffffffffffffffff1663095ea7b3600160009054906101000a900473ffffffffffffffffffffffffffffffffffffffff16866040518363ffffffff1660e01b8152600401808373ffffffffffffffffffffffffffffffffffffffff16815260200182815260200192505050602060405180830381600087803b15801561054057600080fd5b505af1158015610554573d6000803e3d6000fd5b505050506040513d602081101561056a57600080fd5b810190808051906020019092919050505050600061059d73c35dadb65012ec5796536bd9864ed8773abc74c48688610c69565b6000815181106105a957fe5b602002602001015190506000600160009054906101000a900473ffffffffffffffffffffffffffffffffffffffff1673ffffffffffffffffffffffffffffffffffffffff166338ed173987848a33620d2f0042016040518663ffffffff1660e01b815260040180868152602001858152602001806020018473ffffffffffffffffffffffffffffffffffffffff168152602001838152602001828103825285818151815260200191508051906020019060200280838360005b8381101561067d578082015181840152602081019050610662565b505050509050019650505050505050600060405180830381600087803b1580156106a657600080fd5b505af11580156106ba573d6000803e3d6000fd5b505050506040513d6000823e3d601f19601f8201168201806040525060208110156106e457600080fd5b810190808051604051939291908464010000000082111561070457600080fd5b8382019150602082018581111561071a57600080fd5b825186602082028301116401000000008211171561073757600080fd5b8083526020830192505050908051906020019060200280838360005b8381101561076e578082015181840152602081019050610753565b5050505090500160405250505060018151811061078757fe5b60200260200101519050818111610806576040517f08c379a00000000000000000000000000000000000000000000000000000000081526004018080602001828103825260098152602001807f4e4f5f50524f464954000000000000000000000000000000000000000000000081525060200191505060405180910390fd5b6000808c146108155784610817565b855b90508073ffffffffffffffffffffffffffffffffffffffff1663a9059cbb33856040518363ffffffff1660e01b8152600401808373ffffffffffffffffffffffffffffffffffffffff16815260200182815260200192505050602060405180830381600087803b15801561088a57600080fd5b505af115801561089e573d6000803e3d6000fd5b505050506040513d60208110156108b457600080fd5b8101908080519060200190929190505050508073ffffffffffffffffffffffffffffffffffffffff1663a9059cbb60008054906101000a900473ffffffffffffffffffffffffffffffffffffffff166109168686610de990919063ffffffff16565b6040518363ffffffff1660e01b8152600401808373ffffffffffffffffffffffffffffffffffffffff16815260200182815260200192505050602060405180830381600087803b15801561096957600080fd5b505af115801561097d573d6000803e3d6000fd5b505050506040513d602081101561099357600080fd5b81019080805190602001909291905050505050505050505050505050505050565b600073c35dadb65012ec5796536bd9864ed8773abc74c473ffffffffffffffffffffffffffffffffffffffff1663e6a4390586866040518363ffffffff1660e01b8152600401808373ffffffffffffffffffffffffffffffffffffffff1681526020018273ffffffffffffffffffffffffffffffffffffffff1681526020019250505060206040518083038186803b158015610a4f57600080fd5b505afa158015610a63573d6000803e3d6000fd5b505050506040513d6020811015610a7957600080fd5b81019080805190602001909291905050509050600073ffffffffffffffffffffffffffffffffffffffff168173ffffffffffffffffffffffffffffffffffffffff161415610b2f576040517f08c379a00000000000000000000000000000000000000000000000000000000081526004018080602001828103825260188152602001807f5468697320706f6f6c20646f6573206e6f74206578697374000000000000000081525060200191505060405180910390fd5b8073ffffffffffffffffffffffffffffffffffffffff1663022c0d9f8484306040518060400160405280600981526020017f6e6f7420656d70747900000000000000000000000000000000000000000000008152506040518563ffffffff1660e01b8152600401808581526020018481526020018373ffffffffffffffffffffffffffffffffffffffff16815260200180602001828103825283818151815260200191508051906020019080838360005b83811015610bfb578082015181840152602081019050610be0565b50505050905090810190601f168015610c285780820380516001836020036101000a031916815260200191505b5095505050505050600060405180830381600087803b158015610c4a57600080fd5b505af1158015610c5e573d6000803e3d6000fd5b505050505050505050565b6060600282511015610ce3576040517f08c379a000000000000000000000000000000000000000000000000000000000815260040180806020018281038252601e8152602001807f556e697377617056324c6962726172793a20494e56414c49445f50415448000081525060200191505060405180910390fd5b815167ffffffffffffffff81118015610cfb57600080fd5b50604051908082528060200260200182016040528015610d2a5781602001602082028036833780820191505090505b5090508281600183510381518110610d3e57fe5b6020026020010181815250506000600183510390505b6000811115610de157600080610d9487866001860381518110610d7357fe5b6020026020010151878681518110610d8757fe5b6020026020010151610e72565b91509150610db6848481518110610da757fe5b60200260200101518383611050565b846001850381518110610dc557fe5b6020026020010181815250505050808060019003915050610d54565b509392505050565b600082821115610e61576040517f08c379a000000000000000000000000000000000000000000000000000000000815260040180806020018281038252601e8152602001807f536166654d6174683a207375627472616374696f6e206f766572666c6f77000081525060200191505060405180910390fd5b600082840390508091505092915050565b6000806000610e81858561118d565b5090506000808773ffffffffffffffffffffffffffffffffffffffff1663e6a4390588886040518363ffffffff1660e01b8152600401808373ffffffffffffffffffffffffffffffffffffffff1681526020018273ffffffffffffffffffffffffffffffffffffffff1681526020019250505060206040518083038186803b158015610f0c57600080fd5b505afa158015610f20573d6000803e3d6000fd5b505050506040513d6020811015610f3657600080fd5b810190808051906020019092919050505073ffffffffffffffffffffffffffffffffffffffff16630902f1ac6040518163ffffffff1660e01b815260040160606040518083038186803b158015610f8c57600080fd5b505afa158015610fa0573d6000803e3d6000fd5b505050506040513d6060811015610fb657600080fd5b81019080805190602001909291908051906020019092919080519060200190929190505050506dffffffffffffffffffffffffffff1691506dffffffffffffffffffffffffffff1691508273ffffffffffffffffffffffffffffffffffffffff168773ffffffffffffffffffffffffffffffffffffffff161461103a57808261103d565b81815b8095508196505050505050935093915050565b60008084116110aa576040517f08c379a000000000000000000000000000000000000000000000000000000000815260040180806020018281038252602c815260200180611413602c913960400191505060405180910390fd5b6000831180156110ba5750600082115b61110f576040517f08c379a00000000000000000000000000000000000000000000000000000000081526004018080602001828103825260288152602001806114646028913960400191505060405180910390fd5b60006111386103e861112a878761130490919063ffffffff16565b61130490919063ffffffff16565b905060006111636103e56111558887610de990919063ffffffff16565b61130490919063ffffffff16565b9050611182600182848161117357fe5b0461138a90919063ffffffff16565b925050509392505050565b6000808273ffffffffffffffffffffffffffffffffffffffff168473ffffffffffffffffffffffffffffffffffffffff161415611215576040517f08c379a000000000000000000000000000000000000000000000000000000000815260040180806020018281038252602581526020018061143f6025913960400191505060405180910390fd5b8273ffffffffffffffffffffffffffffffffffffffff168473ffffffffffffffffffffffffffffffffffffffff161061124f578284611252565b83835b8092508193505050600073ffffffffffffffffffffffffffffffffffffffff168273ffffffffffffffffffffffffffffffffffffffff1614156112fd576040517f08c379a000000000000000000000000000000000000000000000000000000000815260040180806020018281038252601e8152602001807f556e697377617056324c6962726172793a205a45524f5f41444452455353000081525060200191505060405180910390fd5b9250929050565b6000808314156113175760009050611384565b600082840290508284828161132857fe5b041461137f576040517f08c379a000000000000000000000000000000000000000000000000000000000815260040180806020018281038252602181526020018061148c6021913960400191505060405180910390fd5b809150505b92915050565b600080828401905083811015611408576040517f08c379a000000000000000000000000000000000000000000000000000000000815260040180806020018281038252601b8152602001807f536166654d6174683a206164646974696f6e206f766572666c6f77000000000081525060200191505060405180910390fd5b809150509291505056fe556e697377617056324c6962726172793a20494e53554646494349454e545f4f55545055545f414d4f554e54556e697377617056324c6962726172793a204944454e544943414c5f414444524553534553556e697377617056324c6962726172793a20494e53554646494349454e545f4c4951554944495459536166654d6174683a206d756c7469706c69636174696f6e206f766572666c6f77a2646970667358221220a3f77dbc959836dfd79226cb548c7028ba88d3aba22039a9202ad4412d4ea2e764736f6c63430007060033",
  "immutableReferences": {},
  "source": "// SPDX-License-Identifier: UNLICENSED\r\n\r\npragma solidity >=0.6.6 <0.8.0;\r\n\r\nimport './utils/SafeMath.sol';\r\nimport './UniswapV2Library.sol';\r\nimport './interfaces/IUniswapV2Router02.sol';\r\nimport './interfaces/IUniswapV2Pair.sol';\r\nimport './interfaces/IUniswapV2Factory.sol';\r\nimport './interfaces/IERC20.sol';\r\n\r\ncontract Flashswap {\r\n    using SafeMath for uint;\r\n    uint constant deadline = 10 days;\r\n\r\n    address private owner;\r\n    address constant sushiFactory = 0xc35DADB65012eC5796536bD9864eD8773aBc74C4;\r\n    address constant quick = 0xa5E0829CaCEd8fFDD4De3c43696c57F7D7A678ff;\r\n    IUniswapV2Router02 quickRouter = IUniswapV2Router02(quick);\r\n\r\n    constructor() {\r\n        owner = msg.sender;\r\n    }\r\n\r\n    function startArbitrage(\r\n        address token0,\r\n        address token1,\r\n        uint amount0,\r\n        uint amount1\r\n    ) external {\r\n        address pairAddress = IUniswapV2Factory(sushiFactory).getPair(token0, token1);\r\n        require(pairAddress != address(0), 'This pool does not exist');\r\n\r\n        IUniswapV2Pair(pairAddress).swap(\r\n            amount0,\r\n            amount1,\r\n            address(this),\r\n            bytes('not empty')\r\n        );\r\n    }\r\n\r\n    function uniswapV2Call(\r\n        address _sender,\r\n        uint _amount0,\r\n        uint _amount1,\r\n        bytes calldata _data\r\n    ) external {\r\n        address[] memory path = new address[](2);\r\n\r\n        // obtain an amout of token that you exchanged\r\n        uint amountToken = _amount0 == 0 ? _amount1 : _amount0;\r\n\r\n        address token0 = IUniswapV2Pair(msg.sender).token0();\r\n        address token1 = IUniswapV2Pair(msg.sender).token1();\r\n\r\n        require(msg.sender == IUniswapV2Factory(sushiFactory).getPair(token0, token1));\r\n        require(_amount0 == 0 || _amount1 == 0);\r\n\r\n        // if _amount0 is zero sell token1 for token0\r\n        // else sell token0 for token1 as a result\r\n        path[0] = _amount0 == 0 ? token1 : token0;\r\n        path[1] = _amount0 == 0 ? token0 : token1;\r\n\r\n        // IERC20 token that we will sell for otherToken\r\n        IERC20 token = IERC20(_amount0 == 0 ? token1 : token0);\r\n        token.approve(address(quickRouter), amountToken);\r\n\r\n        // calculate the amount of token how much input token should be reimbursed\r\n        uint amountRequired = UniswapV2Library.getAmountsIn(\r\n            sushiFactory,\r\n            amountToken,\r\n            path\r\n        )[0];\r\n\r\n        // swap token and obtain equivalent otherToken amountRequired as a result\r\n        uint amountReceived = quickRouter.swapExactTokensForTokens(\r\n            amountToken,\r\n            amountRequired,\r\n            path,\r\n            msg.sender,\r\n            block.timestamp + deadline\r\n        )[1];\r\n\r\n        require(amountReceived > amountRequired, 'NO_PROFIT'); // fail if we didn't get enough tokens\r\n        IERC20 otherToken = IERC20(_amount0 == 0 ? token0 : token1);\r\n        otherToken.transfer(msg.sender, amountRequired);\r\n        otherToken.transfer(owner, amountReceived.sub(amountRequired));\r\n    }\r\n}\r\n\r\n",
  "sourcePath": "C:/Users/Kunnow/Desktop/sushi-quick-arbitrage/contracts/Flashswap.sol",
  "compiler": {
    "name": "solc",
    "version": "0.7.6+commit.7338295f.Emscripten.clang"
  },
  "schemaVersion": "3.4.1",
  "updatedAt": "2021-06-27T23:53:08.871Z",
  "devdoc": {
    "kind": "dev",
    "methods": {},
    "version": 1
  },
  "userdoc": {
    "kind": "user",
    "methods": {},
    "version": 1
  }
}